{
  "contractName": "Ad",
  "abi": [
    {
      "constant": true,
      "inputs": [],
      "name": "getState",
      "outputs": [
        {
          "name": "adTitle",
          "type": "string"
        },
        {
          "name": "adImg",
          "type": "string"
        },
        {
          "name": "adHref",
          "type": "string"
        },
        {
          "name": "adTotal",
          "type": "uint256"
        }
      ],
      "payable": false,
      "stateMutability": "view",
      "type": "function"
    },
    {
      "constant": false,
      "inputs": [],
      "name": "addContribution",
      "outputs": [
        {
          "name": "",
          "type": "uint256"
        }
      ],
      "payable": true,
      "stateMutability": "payable",
      "type": "function"
    },
    {
      "inputs": [
        {
          "name": "newAdOwner",
          "type": "address"
        },
        {
          "name": "newAdTitle",
          "type": "string"
        },
        {
          "name": "newAdImg",
          "type": "string"
        },
        {
          "name": "newAdHref",
          "type": "string"
        },
        {
          "name": "contribution",
          "type": "uint256"
        }
      ],
      "payable": false,
      "stateMutability": "nonpayable",
      "type": "constructor"
    }
  ],
  "bytecode": "0x6060604052341561000f57600080fd5b60405161066b38038061066b83398101604052808051906020019091908051820191906020018051820191906020018051820191906020018051906020019091905050846000806101000a81548173ffffffffffffffffffffffffffffffffffffffff021916908373ffffffffffffffffffffffffffffffffffffffff16021790555032600160006101000a81548173ffffffffffffffffffffffffffffffffffffffff021916908373ffffffffffffffffffffffffffffffffffffffff16021790555083600290805190602001906100e9929190610129565b508260039080519060200190610100929190610129565b508160049080519060200190610117929190610129565b508060058190555050505050506101ce565b828054600181600116156101000203166002900490600052602060002090601f016020900481019282601f1061016a57805160ff1916838001178555610198565b82800160010185558215610198579182015b8281111561019757825182559160200191906001019061017c565b5b5090506101a591906101a9565b5090565b6101cb91905b808211156101c75760008160009055506001016101af565b5090565b90565b61048e806101dd6000396000f30060606040526004361061004c576000357c0100000000000000000000000000000000000000000000000000000000900463ffffffff1680631865c57d1461005157806393cd40b4146101be575b600080fd5b341561005c57600080fd5b6100646101dc565b60405180806020018060200180602001858152602001848103845288818151815260200191508051906020019080838360005b838110156100b2578082015181840152602081019050610097565b50505050905090810190601f1680156100df5780820380516001836020036101000a031916815260200191505b50848103835287818151815260200191508051906020019080838360005b838110156101185780820151818401526020810190506100fd565b50505050905090810190601f1680156101455780820380516001836020036101000a031916815260200191505b50848103825286818151815260200191508051906020019080838360005b8381101561017e578082015181840152602081019050610163565b50505050905090810190601f1680156101ab5780820380516001836020036101000a031916815260200191505b5097505050505050505060405180910390f35b6101c66103d8565b6040518082815260200191505060405180910390f35b6101e461044e565b6101ec61044e565b6101f461044e565b600060028054600181600116156101000203166002900480601f01602080910402602001604051908101604052809291908181526020018280546001816001161561010002031660029004801561028c5780601f106102615761010080835404028352916020019161028c565b820191906000526020600020905b81548152906001019060200180831161026f57829003601f168201915b5050505050935060038054600181600116156101000203166002900480601f0160208091040260200160405190810160405280929190818152602001828054600181600116156101000203166002900480156103295780601f106102fe57610100808354040283529160200191610329565b820191906000526020600020905b81548152906001019060200180831161030c57829003601f168201915b5050505050925060048054600181600116156101000203166002900480601f0160208091040260200160405190810160405280929190818152602001828054600181600116156101000203166002900480156103c65780601f1061039b576101008083540402835291602001916103c6565b820191906000526020600020905b8154815290600101906020018083116103a957829003601f168201915b50505050509150600554905090919293565b60008060009054906101000a900473ffffffffffffffffffffffffffffffffffffffff1673ffffffffffffffffffffffffffffffffffffffff166108fc349081150290604051600060405180830381858888f19350505050151561043b57600080fd5b3460056000828254019250508190555090565b6020604051908101604052806000815250905600a165627a7a72305820fdb1cab6e4604ad917e3ca2dae28731302cbc3ac3403f5416c9969177b0fd5e00029",
  "source": "// pragma solidity ^0.4.17;\npragma solidity ^0.4.8;\n\n// import \"./Contribution.sol\";\n\ncontract Ad {\n\n  address owner; // owner of billboard\n\n  address publisher; // make private?\n  string title;\n  string img;\n  string href;\n  uint256 total;\n  // Contribution[] contributions;\n\n  function Ad(address newAdOwner, string newAdTitle, string newAdImg, string newAdHref, uint256 contribution) {\n    owner = newAdOwner;\n    publisher = tx.origin;\n    title = newAdTitle;\n    img = newAdImg;\n    href = newAdHref;\n    total = contribution;\n  }\n\n  function getState() constant returns (string adTitle, string adImg, string adHref, uint256 adTotal) {\n    adTitle = title;\n    adImg = img;\n    adHref = href;\n    adTotal = total;\n  }\n\n  function addContribution() payable returns (uint256) {\n    if (!owner.send(msg.value)) {\n      throw;\n    }\n    total += msg.value;\n  }\n\n}\n",
  "sourcePath": "/Users/btu/Documents/btoo/ethboard/ethboard/contracts/Ad.sol",
  "compiler": {
    "name": "solc",
    "version": "0.4.18+commit.9cf6e910.Emscripten.clang"
  },
  "schemaVersion": "1.0.1",
  "updatedAt": "2018-01-04T08:10:13.189Z"
}