{
  "contractName": "Board",
  "abi": [
    {
      "constant": false,
      "inputs": [
        {
          "name": "postedAdTitle",
          "type": "string"
        },
        {
          "name": "postedAdImg",
          "type": "string"
        },
        {
          "name": "postedAdHref",
          "type": "string"
        }
      ],
      "name": "postAd",
      "outputs": [
        {
          "name": "",
          "type": "address"
        }
      ],
      "payable": true,
      "stateMutability": "payable",
      "type": "function"
    },
    {
      "constant": false,
      "inputs": [],
      "name": "getOwner",
      "outputs": [
        {
          "name": "",
          "type": "address"
        }
      ],
      "payable": false,
      "stateMutability": "nonpayable",
      "type": "function"
    },
    {
      "constant": true,
      "inputs": [],
      "name": "getAdsCount",
      "outputs": [
        {
          "name": "",
          "type": "uint256"
        }
      ],
      "payable": false,
      "stateMutability": "view",
      "type": "function"
    },
    {
      "constant": false,
      "inputs": [
        {
          "name": "index",
          "type": "uint256"
        }
      ],
      "name": "getAdAddress",
      "outputs": [
        {
          "name": "ad",
          "type": "address"
        }
      ],
      "payable": false,
      "stateMutability": "nonpayable",
      "type": "function"
    },
    {
      "inputs": [],
      "payable": true,
      "stateMutability": "payable",
      "type": "constructor"
    }
  ],
  "bytecode": "0x6060604052336000806101000a81548173ffffffffffffffffffffffffffffffffffffffff021916908373ffffffffffffffffffffffffffffffffffffffff160217905550610cc6806100536000396000f300606060405260043610610062576000357c0100000000000000000000000000000000000000000000000000000000900463ffffffff1680634761b6de14610067578063893d20e81461017f578063dddbb753146101d4578063ef868099146101fd575b600080fd5b61013d600480803590602001908201803590602001908080601f0160208091040260200160405190810160405280939291908181526020018383808284378201915050505050509190803590602001908201803590602001908080601f0160208091040260200160405190810160405280939291908181526020018383808284378201915050505050509190803590602001908201803590602001908080601f01602080910402602001604051908101604052809392919081815260200183838082843782019150505050505091905050610260565b604051808273ffffffffffffffffffffffffffffffffffffffff1673ffffffffffffffffffffffffffffffffffffffff16815260200191505060405180910390f35b341561018a57600080fd5b610192610534565b604051808273ffffffffffffffffffffffffffffffffffffffff1673ffffffffffffffffffffffffffffffffffffffff16815260200191505060405180910390f35b34156101df57600080fd5b6101e761055d565b6040518082815260200191505060405180910390f35b341561020857600080fd5b61021e600480803590602001909190505061056a565b604051808273ffffffffffffffffffffffffffffffffffffffff1673ffffffffffffffffffffffffffffffffffffffff16815260200191505060405180910390f35b60008060009054906101000a900473ffffffffffffffffffffffffffffffffffffffff1673ffffffffffffffffffffffffffffffffffffffff166108fc349081150290604051600060405180830381858888f1935050505015156102c357600080fd5b600180548060010182816102d791906105ce565b916000526020600020900160008060009054906101000a900473ffffffffffffffffffffffffffffffffffffffff16878787346103126105fa565b808673ffffffffffffffffffffffffffffffffffffffff1673ffffffffffffffffffffffffffffffffffffffff168152602001806020018060200180602001858152602001848103845288818151815260200191508051906020019080838360005b8381101561038f578082015181840152602081019050610374565b50505050905090810190601f1680156103bc5780820380516001836020036101000a031916815260200191505b50848103835287818151815260200191508051906020019080838360005b838110156103f55780820151818401526020810190506103da565b50505050905090810190601f1680156104225780820380516001836020036101000a031916815260200191505b50848103825286818151815260200191508051906020019080838360005b8381101561045b578082015181840152602081019050610440565b50505050905090810190601f1680156104885780820380516001836020036101000a031916815260200191505b5098505050505050505050604051809103906000f08015156104a957600080fd5b909190916101000a81548173ffffffffffffffffffffffffffffffffffffffff021916908373ffffffffffffffffffffffffffffffffffffffff160217905550506001808080549050038154811015156104ff57fe5b906000526020600020900160009054906101000a900473ffffffffffffffffffffffffffffffffffffffff1690509392505050565b60008060009054906101000a900473ffffffffffffffffffffffffffffffffffffffff16905090565b6000600180549050905090565b60008160008110158015610585575060018080549050038111155b156105c85760018381548110151561059957fe5b906000526020600020900160009054906101000a900473ffffffffffffffffffffffffffffffffffffffff1691505b50919050565b8154818355818115116105f5578183600052602060002091820191016105f4919061060a565b5b505050565b60405161066b8061063083390190565b61062c91905b80821115610628576000816000905550600101610610565b5090565b9056006060604052341561000f57600080fd5b60405161066b38038061066b83398101604052808051906020019091908051820191906020018051820191906020018051820191906020018051906020019091905050846000806101000a81548173ffffffffffffffffffffffffffffffffffffffff021916908373ffffffffffffffffffffffffffffffffffffffff16021790555032600160006101000a81548173ffffffffffffffffffffffffffffffffffffffff021916908373ffffffffffffffffffffffffffffffffffffffff16021790555083600290805190602001906100e9929190610129565b508260039080519060200190610100929190610129565b508160049080519060200190610117929190610129565b508060058190555050505050506101ce565b828054600181600116156101000203166002900490600052602060002090601f016020900481019282601f1061016a57805160ff1916838001178555610198565b82800160010185558215610198579182015b8281111561019757825182559160200191906001019061017c565b5b5090506101a591906101a9565b5090565b6101cb91905b808211156101c75760008160009055506001016101af565b5090565b90565b61048e806101dd6000396000f30060606040526004361061004c576000357c0100000000000000000000000000000000000000000000000000000000900463ffffffff1680631865c57d1461005157806393cd40b4146101be575b600080fd5b341561005c57600080fd5b6100646101dc565b60405180806020018060200180602001858152602001848103845288818151815260200191508051906020019080838360005b838110156100b2578082015181840152602081019050610097565b50505050905090810190601f1680156100df5780820380516001836020036101000a031916815260200191505b50848103835287818151815260200191508051906020019080838360005b838110156101185780820151818401526020810190506100fd565b50505050905090810190601f1680156101455780820380516001836020036101000a031916815260200191505b50848103825286818151815260200191508051906020019080838360005b8381101561017e578082015181840152602081019050610163565b50505050905090810190601f1680156101ab5780820380516001836020036101000a031916815260200191505b5097505050505050505060405180910390f35b6101c66103d8565b6040518082815260200191505060405180910390f35b6101e461044e565b6101ec61044e565b6101f461044e565b600060028054600181600116156101000203166002900480601f01602080910402602001604051908101604052809291908181526020018280546001816001161561010002031660029004801561028c5780601f106102615761010080835404028352916020019161028c565b820191906000526020600020905b81548152906001019060200180831161026f57829003601f168201915b5050505050935060038054600181600116156101000203166002900480601f0160208091040260200160405190810160405280929190818152602001828054600181600116156101000203166002900480156103295780601f106102fe57610100808354040283529160200191610329565b820191906000526020600020905b81548152906001019060200180831161030c57829003601f168201915b5050505050925060048054600181600116156101000203166002900480601f0160208091040260200160405190810160405280929190818152602001828054600181600116156101000203166002900480156103c65780601f1061039b576101008083540402835291602001916103c6565b820191906000526020600020905b8154815290600101906020018083116103a957829003601f168201915b50505050509150600554905090919293565b60008060009054906101000a900473ffffffffffffffffffffffffffffffffffffffff1673ffffffffffffffffffffffffffffffffffffffff166108fc349081150290604051600060405180830381858888f19350505050151561043b57600080fd5b3460056000828254019250508190555090565b6020604051908101604052806000815250905600a165627a7a72305820fdb1cab6e4604ad917e3ca2dae28731302cbc3ac3403f5416c9969177b0fd5e00029a165627a7a72305820f6cdea857fe4efe08e2cab4010e463570267e3c2472122b1c05b25642e63ea9c0029",
  "source": "// pragma solidity ^0.4.17;\npragma solidity ^0.4.8;\n\nimport \"./Ad.sol\";\n\n// we may be able to modify this so that ALL ad related data is kept inside the ad contract\n// and the only data being stored here is the list of ad ADDRESSES\ncontract Board {\n\n  address owner;\n  // address[] ads;\n  Ad[] ads;\n  // mapping(address => Ad) adSpaces;\n\n  function Board(/* string initAdTitle, string initAdImg, string initAdHref */) payable {\n    owner = msg.sender;\n    // ads.push(new Ad(owner, initAdTitle, initAdImg, initAdHref, msg.value));\n  }\n\n  // event AdPosted(\n  //   address indexed postedAdAddress,\n  //   uint indexed postedAdIndex,\n  //   bytes32 postedAdTitle,\n  //   bytes32 postedAdImg,\n  //   bytes32 postedAdHref\n  // );\n\n  function postAd(string postedAdTitle, string postedAdImg, string postedAdHref) payable returns (address) {\n    if (!owner.send(msg.value)) {\n      throw;\n    }\n    ads.push(new Ad(owner, postedAdTitle, postedAdImg, postedAdHref, msg.value));\n    // adSpaces[address(ads[ads.length - 1])] = ads[ads.length - 1];\n    // AdPosted( // events arent working atm.. like why\n    //   address(ads[ads.length - 1]),\n    //   ads.length - 1,\n    //   postedAdTitle,\n    //   postedAdImg,\n    //   postedAdHref\n    // );\n    return address(ads[ads.length - 1]);\n  }\n\n  function getAdsCount() constant returns (uint) {\n    return ads.length;\n  }\n\n  modifier published (uint index) {\n    if (index >= 0 && index <= ads.length - 1) {\n      _;\n    }\n  }\n\n  function getAdAddress(uint index) published(index) returns (address ad) {\n    return address(ads[index]);\n  }\n\n  function getOwner() returns (address) {\n    return owner;\n  }\n\n}\n",
  "sourcePath": "/Users/btu/Documents/btoo/ethboard/ethboard/contracts/Board.sol",
  "compiler": {
    "name": "solc",
    "version": "0.4.18+commit.9cf6e910.Emscripten.clang"
  },
  "schemaVersion": "1.0.1",
  "updatedAt": "2018-01-04T08:10:13.188Z"
}